{
  "contractName": "Note",
  "abi": [
    {
      "inputs": [],
      "stateMutability": "nonpayable",
      "type": "constructor"
    },
    {
      "anonymous": false,
      "inputs": [
        {
          "indexed": false,
          "internalType": "uint256",
          "name": "id",
          "type": "uint256"
        },
        {
          "indexed": false,
          "internalType": "bool",
          "name": "completed",
          "type": "bool"
        }
      ],
      "name": "TaskCompleted",
      "type": "event"
    },
    {
      "anonymous": false,
      "inputs": [
        {
          "indexed": false,
          "internalType": "uint256",
          "name": "id",
          "type": "uint256"
        },
        {
          "indexed": false,
          "internalType": "string",
          "name": "content",
          "type": "string"
        },
        {
          "indexed": false,
          "internalType": "bool",
          "name": "completed",
          "type": "bool"
        }
      ],
      "name": "TaskCreated",
      "type": "event"
    },
    {
      "inputs": [
        {
          "internalType": "uint256",
          "name": "",
          "type": "uint256"
        }
      ],
      "name": "tasks",
      "outputs": [
        {
          "internalType": "uint256",
          "name": "id",
          "type": "uint256"
        },
        {
          "internalType": "string",
          "name": "content",
          "type": "string"
        },
        {
          "internalType": "bool",
          "name": "completed",
          "type": "bool"
        }
      ],
      "stateMutability": "view",
      "type": "function"
    },
    {
      "inputs": [
        {
          "internalType": "uint256",
          "name": "_id",
          "type": "uint256"
        }
      ],
      "name": "toggleCompleted",
      "outputs": [],
      "stateMutability": "nonpayable",
      "type": "function"
    },
    {
      "inputs": [
        {
          "internalType": "string",
          "name": "_content",
          "type": "string"
        }
      ],
      "name": "createTask",
      "outputs": [],
      "stateMutability": "nonpayable",
      "type": "function"
    }
  ],
  "bytecode": "0x6080604052600080553480156200001557600080fd5b506200005c6040518060400160405280601081526020017f4d61207072656d69657265206e6f7465000000000000000000000000000000008152506200006260201b60201c565b62000615565b600080815480929190620000769062000170565b919050555060405180606001604052806000548152602001828152602001600015158152506001600080548152602001908152602001600020600082015181600001556020820151816001019081620000d091906200042d565b5060408201518160020160006101000a81548160ff0219169083151502179055509050507f05d0fb833127fc08168556d0e7ca9554fc3f6bc843b3b7d2bf1c35aea6bab6606000548260006040516200012c93929190620005d1565b60405180910390a150565b7f4e487b7100000000000000000000000000000000000000000000000000000000600052601160045260246000fd5b6000819050919050565b60006200017d8262000166565b91507fffffffffffffffffffffffffffffffffffffffffffffffffffffffffffffffff8203620001b257620001b162000137565b5b600182019050919050565b600081519050919050565b7f4e487b7100000000000000000000000000000000000000000000000000000000600052604160045260246000fd5b7f4e487b7100000000000000000000000000000000000000000000000000000000600052602260045260246000fd5b600060028204905060018216806200023f57607f821691505b602082108103620002555762000254620001f7565b5b50919050565b60008190508160005260206000209050919050565b60006020601f8301049050919050565b600082821b905092915050565b600060088302620002bf7fffffffffffffffffffffffffffffffffffffffffffffffffffffffffffffffff8262000280565b620002cb868362000280565b95508019841693508086168417925050509392505050565b6000819050919050565b60006200030e62000308620003028462000166565b620002e3565b62000166565b9050919050565b6000819050919050565b6200032a83620002ed565b62000342620003398262000315565b8484546200028d565b825550505050565b600090565b620003596200034a565b620003668184846200031f565b505050565b5b818110156200038e57620003826000826200034f565b6001810190506200036c565b5050565b601f821115620003dd57620003a7816200025b565b620003b28462000270565b81016020851015620003c2578190505b620003da620003d18562000270565b8301826200036b565b50505b505050565b600082821c905092915050565b60006200040260001984600802620003e2565b1980831691505092915050565b60006200041d8383620003ef565b9150826002028217905092915050565b6200043882620001bd565b67ffffffffffffffff811115620004545762000453620001c8565b5b62000460825462000226565b6200046d82828562000392565b600060209050601f831160018114620004a5576000841562000490578287015190505b6200049c85826200040f565b8655506200050c565b601f198416620004b5866200025b565b60005b82811015620004df57848901518255600182019150602085019450602081019050620004b8565b86831015620004ff5784890151620004fb601f891682620003ef565b8355505b6001600288020188555050505b505050505050565b6200051f8162000166565b82525050565b600082825260208201905092915050565b60005b838110156200055657808201518184015260208101905062000539565b60008484015250505050565b6000601f19601f8301169050919050565b60006200058082620001bd565b6200058c818562000525565b93506200059e81856020860162000536565b620005a98162000562565b840191505092915050565b60008115159050919050565b620005cb81620005b4565b82525050565b6000606082019050620005e8600083018662000514565b8181036020830152620005fc818562000573565b90506200060d6040830184620005c0565b949350505050565b610a6580620006256000396000f3fe608060405234801561001057600080fd5b50600436106100415760003560e01c8063111002aa14610046578063455f5024146100625780638d9776721461007e575b600080fd5b610060600480360381019061005b919061051e565b6100b0565b005b61007c6004803603810190610077919061059d565b61017f565b005b6100986004803603810190610093919061059d565b610305565b6040516100a793929190610673565b60405180910390f35b6000808154809291906100c2906106e0565b91905055506040518060600160405280600054815260200182815260200160001515815250600160008054815260200190815260200160002060008201518160000155602082015181600101908161011a9190610934565b5060408201518160020160006101000a81548160ff0219169083151502179055509050507f05d0fb833127fc08168556d0e7ca9554fc3f6bc843b3b7d2bf1c35aea6bab66060005482600060405161017493929190610673565b60405180910390a150565b600060016000838152602001908152602001600020604051806060016040529081600082015481526020016001820180546101b990610757565b80601f01602080910402602001604051908101604052809291908181526020018280546101e590610757565b80156102325780601f1061020757610100808354040283529160200191610232565b820191906000526020600020905b81548152906001019060200180831161021557829003601f168201915b505050505081526020016002820160009054906101000a900460ff161515151581525050905080604001511581604001901515908115158152505080600160008481526020019081526020016000206000820151816000015560208201518160010190816102a09190610934565b5060408201518160020160006101000a81548160ff0219169083151502179055509050507fe21fa966ca5cd02748c0752352d18c48165e61cb55b4c29cccf924b5a95fcff18282604001516040516102f9929190610a06565b60405180910390a15050565b600160205280600052604060002060009150905080600001549080600101805461032e90610757565b80601f016020809104026020016040519081016040528092919081815260200182805461035a90610757565b80156103a75780601f1061037c576101008083540402835291602001916103a7565b820191906000526020600020905b81548152906001019060200180831161038a57829003601f168201915b5050505050908060020160009054906101000a900460ff16905083565b6000604051905090565b600080fd5b600080fd5b600080fd5b600080fd5b6000601f19601f8301169050919050565b7f4e487b7100000000000000000000000000000000000000000000000000000000600052604160045260246000fd5b61042b826103e2565b810181811067ffffffffffffffff8211171561044a576104496103f3565b5b80604052505050565b600061045d6103c4565b90506104698282610422565b919050565b600067ffffffffffffffff821115610489576104886103f3565b5b610492826103e2565b9050602081019050919050565b82818337600083830152505050565b60006104c16104bc8461046e565b610453565b9050828152602081018484840111156104dd576104dc6103dd565b5b6104e884828561049f565b509392505050565b600082601f830112610505576105046103d8565b5b81356105158482602086016104ae565b91505092915050565b600060208284031215610534576105336103ce565b5b600082013567ffffffffffffffff811115610552576105516103d3565b5b61055e848285016104f0565b91505092915050565b6000819050919050565b61057a81610567565b811461058557600080fd5b50565b60008135905061059781610571565b92915050565b6000602082840312156105b3576105b26103ce565b5b60006105c184828501610588565b91505092915050565b6105d381610567565b82525050565b600081519050919050565b600082825260208201905092915050565b60005b838110156106135780820151818401526020810190506105f8565b60008484015250505050565b600061062a826105d9565b61063481856105e4565b93506106448185602086016105f5565b61064d816103e2565b840191505092915050565b60008115159050919050565b61066d81610658565b82525050565b600060608201905061068860008301866105ca565b818103602083015261069a818561061f565b90506106a96040830184610664565b949350505050565b7f4e487b7100000000000000000000000000000000000000000000000000000000600052601160045260246000fd5b60006106eb82610567565b91507fffffffffffffffffffffffffffffffffffffffffffffffffffffffffffffffff820361071d5761071c6106b1565b5b600182019050919050565b7f4e487b7100000000000000000000000000000000000000000000000000000000600052602260045260246000fd5b6000600282049050600182168061076f57607f821691505b60208210810361078257610781610728565b5b50919050565b60008190508160005260206000209050919050565b60006020601f8301049050919050565b600082821b905092915050565b6000600883026107ea7fffffffffffffffffffffffffffffffffffffffffffffffffffffffffffffffff826107ad565b6107f486836107ad565b95508019841693508086168417925050509392505050565b6000819050919050565b600061083161082c61082784610567565b61080c565b610567565b9050919050565b6000819050919050565b61084b83610816565b61085f61085782610838565b8484546107ba565b825550505050565b600090565b610874610867565b61087f818484610842565b505050565b5b818110156108a35761089860008261086c565b600181019050610885565b5050565b601f8211156108e8576108b981610788565b6108c28461079d565b810160208510156108d1578190505b6108e56108dd8561079d565b830182610884565b50505b505050565b600082821c905092915050565b600061090b600019846008026108ed565b1980831691505092915050565b600061092483836108fa565b9150826002028217905092915050565b61093d826105d9565b67ffffffffffffffff811115610956576109556103f3565b5b6109608254610757565b61096b8282856108a7565b600060209050601f83116001811461099e576000841561098c578287015190505b6109968582610918565b8655506109fe565b601f1984166109ac86610788565b60005b828110156109d4578489015182556001820191506020850194506020810190506109af565b868310156109f157848901516109ed601f8916826108fa565b8355505b6001600288020188555050505b505050505050565b6000604082019050610a1b60008301856105ca565b610a286020830184610664565b939250505056fea2646970667358221220e08d889528d8c2a973e65b424e56a4286a1b7e03a0d0bc7e46efe65f2eac3d0764736f6c63430008110033",
  "immutableReferences": {},
  "source": "pragma solidity ^0.8.17;\r\n\r\n\r\ncontract Note {\r\n  uint taskCount = 0;\r\n\r\n    struct Task {\r\n        uint id;\r\n        string content;\r\n        bool completed;\r\n    }\r\n\r\n\r\n    constructor() public {\r\n        createTask(\"Ma premiere note\");\r\n      }\r\n\r\n      event TaskCreated(\r\n        uint id,\r\n        string content,\r\n        bool completed\r\n      );\r\n\r\n      \r\n    event TaskCompleted(\r\n      uint id,\r\n      bool completed\r\n    );\r\n\r\n    function toggleCompleted(uint _id) public {\r\n      Task memory _task = tasks[_id];\r\n      _task.completed = !_task.completed;\r\n      tasks[_id] = _task;\r\n      emit TaskCompleted(_id, _task.completed);\r\n    }\r\n\r\n\r\n    mapping(uint => Task) public tasks;\r\n\r\n      function createTask(string memory _content) public {\r\n            taskCount ++;\r\n            tasks[taskCount] = Task(taskCount, _content, false);\r\n              emit TaskCreated(taskCount, _content, false);\r\n    }\r\n}",
  "sourcePath": "C:\\Users\\Enzo\\noteDapp\\contracts\\Note.sol",
  "compiler": {
    "name": "solc",
    "version": "0.8.17+commit.8df45f5f.Emscripten.clang"
  },
  "schemaVersion": "3.4.10",
  "updatedAt": "2022-09-25T18:23:46.739Z",
  "devdoc": {
    "kind": "dev",
    "methods": {},
    "version": 1
  },
  "userdoc": {
    "kind": "user",
    "methods": {},
    "version": 1
  }
}